:1000000000200010430000004100000041000000FB
:1000100041000000410000004100000041000000DC
:1000200041000000410000004100000041000000CC
:1000300041000000410000004100000041000000BC
:10004000FEE70B480B490C4A091A05D013780370D8
:10005000013201300139F9DC08480949091A04D094
:100060005B40037001300139FBDC00F013FEFEE75A
:10007000000000102C020010200D000030020010C3
:1000800030020010500F0000002370B5064C04F53C
:1000900080769A5D80EA030501334A40B3F5807F9C
:1000A0006255F6D170BD00BF0000001010B500F120
:1000B00010020C7803780430634000F8043C4C785C
:1000C00010F8033C634000F8033C8C7810F8023CC5
:1000D000634000F8023CCC7810F8013C634000F823
:1000E000013C9042E5D110BD30B500F110040B7811
:1000F000057853406B4003704B78457853406B4014
:1001000043708B78857853406B408370CB78C5788B
:1001100053406B40C3700430A042E8D130BD70B58D
:1001200000F11005147806785C4074400C70547827
:1001300046785C4074404C70947886785C4074409B
:100140008C70D478C6785C4004307440A842CC707F
:1001500001F10401E6D170BD704710B5431E08449B
:10016000A0EB5101884200D110BD13F8012F10F807
:10017000014D1C700270F5E7402894BF30383738C5
:10018000C0B2704708B5FFF7F7FF03460846FFF710
:10019000F3FF00EB0310C0B208BD092894BF303054
:1001A0003730C0B2704708B503460809FFF7F5FFBE
:1001B000187001F00F00FFF7F0FF587008BD70B520
:1001C000054600F06DFD2C460646631B9E4209DC89
:1001D0000D21002000F0CAFCBDE870400A2100207B
:1001E00000F0C4BC14F8011B002000F0BFFCECE7D9
:1001F0002DE9F041064600200F4600F0ABFC044616
:10020000002000F0A7FC01462046FFF7BBFF054693
:10021000002000F09FFC3446A31BDBB29D424FF050
:10022000000001D99F4204D800F094FC2846BDE8A4
:10023000F08100F08FFC8046002000F08BFC01462E
:100240004046FFF79FFF04F8010BE5E737B504468A
:1002500001A80D46FFF7A7FF9DF80410002000F04D
:1002600085FC9DF80510002000F080FC3A2100205C
:1002700000F07CFC013C2544AC4205D10D2100205E
:1002800000F074FC03B030BD14F8011F01A8FFF7A3
:100290008AFF9DF80410002000F068FC9DF805100E
:1002A000002000F063FCE7E74179427A437B10B518
:1002B000447842714473827A8478417043728179C0
:1002C000837B84728173C478C17982708371C27AAE
:1002D000C37BC471C172C273C37010BD184B027866
:1002E0009A5C027042789A5C427082789A5C827062
:1002F000C2789A5CC27002799A5C027142799A5C07
:10030000427182799A5C8271C2799A5CC271027A76
:100310009A5C0272427A9A5C4272827A9A5C827227
:10032000C27A9A5CC272027B9A5C0273427B9A5CCC
:100330004273827B9A5C8273C27B9B5CC3737047FF
:10034000000000100A780378534003704A7843781D
:10035000534043708A78837853408370CA78C37857
:100360005340C3700A790379534003714A79437942
:10037000534043718A79837953408371CA79C37931
:100380005340C3710A7A037A534003724A7A437A1C
:10039000534043728A7A837A53408372CA7AC37A0B
:1003A0005340C3720A7B037B534003734A7B437BF6
:1003B000534043738A7B837B53408373CA7BC37BE5
:1003C0005340C3737047F0B50378477B5940284BBF
:1003D000867BDA1992F80021C57B514001709A1989
:1003E00092F800414278544044705A1992F800C182
:1003F00082788CEA020290F80CC08270634493F811
:1004000000E1C3788EEA030390F804E0C37081EA48
:100410000E0190F805E0017184EA0E0490F806E000
:10042000447182EA0E0290F807E0827183EA0E03BB
:1004300090F808E0C37181EA0E0190F809E00172BA
:1004400084EA0E0490F80AE0447282EA0E0290F800
:100450000BE0827283EA0E03C3728CEA01017C40D6
:1004600072406B40017344738273C373F0BD00BF6D
:100470000000001010F0800F4FEA400018BF80F01D
:100480001B00C0B270472DE9F843031D00F11408AA
:1004900013F8046C13F8035C304613F8024C13F89D
:1004A000017CFFF7E7FF81462846FFF7E3FF02469E
:1004B0002046FFF7DFFF01463846FFF7DBFF89EAFA
:1004C000020C4A40414089EA000085EA0C0C724067
:1004D0007140464084EA0C0C62406940754087EAEE
:1004E0000C0C7A406C404F4003F804CC03F8032C0A
:1004F00003F8027C03F8014C04339845C8D1BDE8E9
:10050000F8832DE9F04F5D4F93B00D4606467968AC
:10051000386803AC03C43889B97A0EAF2080A17063
:100520003C4605F1100EBC46286869680835ACE801
:10053000030075456746F6D106AF02F1100C3D4643
:1005400010685168083203C562452F46F7D1997883
:10055000DA781D7993F800805F785B7908468DF82A
:1005600004108DF805208DF807308DF80650FFF740
:1005700081FF83461046FFF77DFF82462846FFF73E
:1005800079FF81461846FFF775FF81EA020C6A4041
:100590006940594085EA0C055A4083EA0C0389EA10
:1005A00003038BEA05058BEA02028AEA0202434052
:1005B0008AEA010A684089EA0A0A8DF80B0039467E
:1005C000404602AD8DF808208DF80A308DF809A05C
:1005D0000DF11809FFF758FD29462046FFF766FD83
:1005E00043462A460AA94846FFF799FD0AA920462C
:1005F000FFF7A8FE4FF0010A2046FFF76FFEFFF756
:1006000053FE3A4601A9FFF76FFD2046FFF73BFF77
:1006100003AB13F80A104846FFF7D5FE43462A46B7
:100620000AA9FFF77CFD0AF1010A0AA92046FFF793
:1006300089FEBAF10A0FDFD1FFF750FEFFF734FE53
:1006400048469DF81610FFF7BEFE2A463B460AA90B
:10065000FFF765FD0AA92046FFF774FE2946FFF75C
:1006600025FD12AA234603CB9342306071601C46DD
:1006700006F10806F6D113B0BDE8F08FFC0C0000BF
:1006800002460723002010B5FFF7F4FE41FA03F4F9
:10069000E40744BF5040C0B213F1FF33F4D210BDA1
:1006A00070B50146FFF7ECFF0646FFF7E9FF31465C
:1006B00005463046FFF7E4FF014604462846FFF7AB
:1006C000DFFF05462046FFF7DBFF01462846FFF720
:1006D000D7FF0146FFF7D4FF0146FFF7D1FF0146E0
:1006E0002846FFF7CDFFFFF7CBFFBDE8704001467E
:1006F000FFF7C6BFF0B52C4891B000F0D1F8002844
:100700004CD00CAA1646294B03F110051446186864
:100710005968083303C4AB422246F7D110270121A0
:1007200001A8FFF765FD012805463BD19DF804406F
:10073000FCB1012CF3D1102108A8FFF759FD1028B6
:100740000546ECD1062102A8FFF752FD0628E6D1A6
:100750002146002000F06CF802AB324608A904A83C
:10076000FFF7CFFE0021084600F062F8294604A8F2
:1007700011E010AC04F8397D01462046FFF766FD14
:10078000294620468DF80770FFF760FD06232946AD
:1007900020468DF80730FFF759FDC0E74FF0FF30D6
:1007A00011B0F0BD0020FBE700020010070D0000B3
:1007B000054B9B785843032390FBF3F0002801DDA1
:1007C0000138FDD1704700BF300200100146002201
:1007D00008B58A4200DB08BD4FF47A70FFF7E8FFE6
:1007E0000132F6E7024B00211B689869704700BF91
:1007F0002802001001280CD003D3022811D00020B9
:100800007047094B1A6843F6FC73D05800F001009A
:100810007047054B1A6843F6FC73D058C0F340008C
:100820007047024BF6E700BF100200100C020010E8
:10083000012811D002D3022817D070470E4B1A6836
:1008400043F6FC7321B1D15841F00101D1507047FA
:10085000D15821F00101F9E7074B1A6843F6FC7300
:1008600029B1D15841F00201F0E7044BF5E7D15826
:1008700021F00201EAE700BF100200100C02001094
:10088000024B1B68586900F0010070471C02001001
:10089000024B1B685869C0F3401070471C020010DF
:1008A0002DE9F74F80460568A14810240368A14E42
:1008B000D3F880205FFA85FC42F48032C3F88020B0
:1008C0009D4A3560116801228A67CA670C6140F24F
:1008D0000124C1F8A420C1F8A8200C634C63D3F80C
:1008E0008010944541F02001C3F88010D3F88010A7
:1008F000009041F04001C3F88010D3F8801041F41B
:100900008051C3F88010596821F00201596059687C
:1009100041F00201596005D026D3BCF1020F05D089
:100920000024E1E062464FF0030900E091464FF0F9
:10093000000EC5F307210191C5F307450124019F6E
:100940000EF1010A0AFB07F1B1FBF4FB04FB1B10DB
:1009500008B95D450AD00134B4F5807FF4D1BAF10D
:10096000200FD646EAD1DBE70022DCE74D009C3DB4
:10097000A42D0FD98D009C3DA42D40F2B980CD004F
:100980009C3DA42D40F2B68009019C39A42900F2B7
:10099000CD800320791E13294EEA401000F2AC806E
:1009A00000211962D3F83812BCF1000F40F0AA8080
:1009B00041F02001C3F83812C82300BF013BFCD12D
:1009C000009B1B681A645A6C42F001025A645A6C0C
:1009D00022F001025A645A6C42F001025A645A6CC5
:1009E000D507FCD59860D3F8382222F08002C3F8EE
:1009F0003822DA68D107FCD5C3F870905A6F42F0FC
:100A000001025A675A6F22F001025A675A6F42F088
:100A100001025A675A6FD207FCD5B1789C67142936
:100A200073D80020454A12681061454A126802F5E1
:100A30000040046844F001040460046844F00204C7
:100A400004604048006800F50040046824F0020497
:100A5000046043F6FC70145824F001041450145838
:100A600024F002041450384AC3F898101368D96867
:100A700041F08001D96005219962996A41F08001B5
:100A800099620021596004211960D96821F0800120
:100A9000D960D96841F00301D960D96821F0080113
:100AA000D960D96821F00401D960FFF7E9FE002878
:100AB00037D1FFF7EDFE04460028FAD0234AB37879
:100AC000126803EB830353611361402313606FF0DB
:100AD0007F421F4B1B685A619A6198F803201AB332
:100AE00005221A6100F0D2F8204603B0BDE8F08F6D
:100AF00001204FE702204DE70F3F0A2F3FF652AF8C
:100B000002214EE721F0200154E7282903D80B4A9F
:100B10000120126888E7322987D8084A0220126823
:100B200082E713681B68C0E70422DAE70446DBE7C4
:100B3000040200103002001008020010240200100D
:100B4000100200100C0200101C0200102002001005
:100B50002802001008B510B9FFF792FEFBE7024B20
:100B60001B681868C0B208BD1C02001008B510B997
:100B7000FFF78EFEFBE7024B1B68196008BD00BF44
:100B80001C0200102DE9F041202541EA400C4FF0F5
:100B90003C0E042738214FF024081820354E3468C5
:100BA00025603468656805F0F805282D39D014D81B
:100BB000102D03D007D805B3082DF3D1C4F808C011
:100BC0002760A061EDE7182D1ED0202DEAD1142357
:100BD000236028230220A36114E0402D2DD006D8E5
:100BE000302D24D0382DDDD1C4F80080E9E7502D18
:100BF0002AD0582D35D0482DE8E714232360282328
:100C00000120A361BDE8F0812BB115780132A56008
:100C10002760A161C5E7142222602822A26100207A
:100C2000F0E7013BF1D114222260A561F7E714231C
:100C3000236028230320A361E4E7012B8ABF2760F8
:100C4000C4F818E0A161ACE7A468551C14703268C0
:100C5000013B012B8ABF1760C2F818E091612A4658
:100C60009FE70BB1A3681370142233681A6028221F
:100C70009A61D4E72002001013460A460121FFF7CB
:100C800081BF13460A460021FFF77CBF62B670475A
:100C900072B6704740404940FFF72CFD7047000096
:100CA00020F0030110F00300C0F1000051F8043BF4
:100CB00000F1040C4FEACC0C6FF000021CBF22FACA
:100CC0000CF213434FF0010C4CEA0C2C4CEA0C4C88
:100CD000A3EB0C0222EA030212EACC1204BF51F881
:100CE000043B0430F4D0C2F1000102EA0102B2FA7E
:100CF00082F2C2F11F0200EBD20070470001020431
:100D000008102040801B3680CEFC6C7833DAB08A25
:080D100031A56904707767004A
:080D18000000000000000000D3
:100D2000637C777BF26B6FC53001672BFED7AB76A8
:100D3000CA82C97DFA5947F0ADD4A2AF9CA472C053
:100D4000B7FD9326363FF7CC34A5E5F171D83115C0
:100D500004C723C31896059A071280E2EB27B275E1
:100D600009832C1A1B6E5AA0523BD6B329E32F8459
:100D700053D100ED20FCB15B6ACBBE394A4C58CF51
:100D8000D0EFAAFB434D338545F9027F503C9FA825
:100D900051A3408F929D38F5BCB6DA2110FFF3D2F3
:100DA000CD0C13EC5F974417C4A77E3D645D1973A7
:100DB00060814FDC222A908846EEB814DE5E0BDBA1
:100DC000E0323A0A4906245CC2D3AC629195E479D8
:100DD000E7C8376D8DD54EA96C56F4EA657AAE0832
:100DE000BA78252E1CA6B4C6E8DD741F4BBD8B8ACD
:100DF000703EB5664803F60E613557B986C11D9E33
:100E0000E1F8981169D98E949B1E87E9CE5528DFA9
:100E10008CA1890DBFE6426841992D0FB054BB16D5
:100E2000637C777BF26B6FC53001672BFED7AB76A7
:100E3000CA82C97DFA5947F0ADD4A2AF9CA472C052
:100E4000B7FD9326363FF7CC34A5E5F171D83115BF
:100E500004C723C31896059A071280E2EB27B275E0
:100E600009832C1A1B6E5AA0523BD6B329E32F8458
:100E700053D100ED20FCB15B6ACBBE394A4C58CF50
:100E8000D0EFAAFB434D338545F9027F503C9FA824
:100E900051A3408F929D38F5BCB6DA2110FFF3D2F2
:100EA000CD0C13EC5F974417C4A77E3D645D1973A6
:100EB00060814FDC222A908846EEB814DE5E0BDBA0
:100EC000E0323A0A4906245CC2D3AC629195E479D7
:100ED000E7C8376D8DD54EA96C56F4EA657AAE0831
:100EE000BA78252E1CA6B4C6E8DD741F4BBD8B8ACC
:100EF000703EB5664803F60E613557B986C11D9E32
:100F0000E1F8981169D98E949B1E87E9CE5528DFA8
:100F10008CA1890DBFE6426841992D0FB054BB16D4
:100F2000000C0C0100800440004004400000005010
:100F300000000150000002500000035000800040FB
:0C0F40000000004000C0034000E000E0A2
:00000001FF
