:1000000000200010430000004100000041000000FB
:1000100041000000410000004100000041000000DC
:1000200041000000410000004100000041000000CC
:1000300041000000410000004100000041000000BC
:10004000FEE70B480B490C4A091A05D013780370D8
:10005000013201300139F9DC08480949091A04D094
:100060005B40037001300139FBDC00F0F5FDFEE779
:10007000000000102C000010200D000030000010C7
:1000800030000010500D0000704710B5431E0844AA
:10009000A0EB5101884200D110BD13F8012F10F8D8
:1000A000014D1C700270F5E7402894BF3038373896
:1000B000C0B2704708B5FFF7F7FF03460846FFF7E1
:1000C000F3FF00EB0310C0B208BD092894BF303025
:1000D0003730C0B2704708B503460809FFF7F5FF8F
:1000E000187001F00F00FFF7F0FF587008BD70B5F1
:1000F000054600F0B7FD2C460646631B9E4209DC10
:100100000D21002000F014FDBDE870400A21002000
:1001100000F00EBD14F8011B002000F009FDECE713
:100120002DE9F041064600200F4600F0F5FC04469C
:10013000002000F0F1FC01462046FFF7BBFF05461A
:10014000002000F0E9FC3446A31BDBB29D424FF0D7
:10015000000001D99F4204D800F0DEFC2846BDE82B
:10016000F08100F0D9FC8046002000F0D5FC01466B
:100170004046FFF79FFF04F8010BE5E737B504465B
:1001800001A80D46FFF7A7FF9DF80410002000F01E
:10019000CFFC9DF80510002000F0CAFC3A21002099
:1001A00000F0C6FC013C2544AC4209D10D210020E1
:1001B00000F0BEFC0A21002000F0BAFC03B030BD04
:1001C00014F8011F01A8FFF786FF9DF80410002016
:1001D00000F0AEFC9DF80510002000F0A9FCE3E75C
:1001E0004179427A437B10B5447842714473827AF4
:1001F0008478417043728179837B84728173C4787F
:10020000C17982708371C27AC37BC471C172C273B7
:10021000C37010BD0A780378534003704A7843785E
:10022000534043708A78837853408370CA78C37888
:100230005340C3700A790379534003714A79437973
:10024000534043718A79837953408371CA79C37962
:100250005340C3710A7A037A534003724A7A437A4D
:10026000534043728A7A837A53408372CA7AC37A3C
:100270005340C3720A7B037B534003734A7B437B27
:10028000534043738A7B837B53408373CA7BC37B16
:100290005340C373704710F0800F4FEA400018BFFF
:1002A00080F01B00C0B270472DE9F843031D00F138
:1002B000140813F8046C13F8035C304613F8024C6E
:1002C00013F8017CFFF7E7FF81462846FFF7E3FFBD
:1002D00002462046FFF7DFFF01463846FFF7DBFF07
:1002E00089EA020C4A40414089EA000085EA0C0C88
:1002F00072407140464084EA0C0C6240694075408F
:1003000087EA0C0C7A406C404F4003F804CC03F8A9
:10031000032C03F8027C03F8014C04339845C8D140
:10032000BDE8F88302460723002010B5FFF7B3FFAE
:1003300041FA03F4E40744BF5040C0B213F1FF3365
:10034000F4D210BD70B50146FFF7ECFF0646FFF78B
:10035000E9FF314605463046FFF7E4FF0146044613
:100360002846FFF7DFFF05462046FFF7DBFF014683
:100370002846FFF7D7FF0146FFF7D4FF0146FFF7F6
:10038000D1FF01462846FFF7CDFFFFF7CBFFBDE8C1
:1003900070400146FFF7C6BF08B5FFF7D3FF80F0F6
:1003A000630383EAD01383EA901383EA501383EA4A
:1003B000101383EA400383EA800383EAC00383EADD
:1003C0000010C0B208BD10B504460078FFF7E4FF86
:1003D00020706078FFF7E0FF6070A078FFF7DCFF27
:1003E000A070E078FFF7D8FFE0702079FFF7D4FF26
:1003F00020716079FFF7D0FF6071A079FFF7CCFF23
:10040000A071E079FFF7C8FFE071207AFFF7C4FF21
:100410002072607AFFF7C0FF6072A07AFFF7BCFF1E
:10042000A072E07AFFF7B8FFE072207BFFF7B4FF1D
:100430002073607BFFF7B0FF6073A07BFFF7ACFF1A
:10044000A073E07BFFF7A8FFE07310BD2DE9F84F24
:100450000446477B0D463846FFF79EFF2178A67B72
:100460004D4045405FFA85F984F800903046FFF72B
:1004700093FF6278E57B42405FFA82FB84F801B02B
:100480002846FFF789FFA37894F80C8043405FFA71
:1004900083FA404684F802A0FFF77EFF94F803C079
:1004A000217980EA0C0094F807C0C0B2E07080EABD
:1004B0000C0094F808C0627989EA0101217181EA8F
:1004C0000C0194F809C0A3798BEA0202627182EAF6
:1004D0000C0294F80AC08AEA0303A37183EA0C03AE
:1004E00094F80BC0E07180EA0C006272A372E072B3
:1004F00088EA01087A4073406840217284F80C80D1
:100500006273A373E073BDE8F88F2DE9F0412D4EBF
:100510008CB00B4605467168306801AC03C4308965
:10052000B17A08AE2080A170344603F1100C0DF1B1
:100530000408374618685968083303C763453E46C0
:10054000F7D104AB1E4602F1100C1F46106851682B
:10055000083203C762453B46F7D131462046FFF7D4
:1005600059FE01272046FFF72EFF2046FFF738FEF1
:10057000FFF79AFE18F807103046FFF767FF0137BC
:1005800031462046FFF746FE0A2FEBD1FFF71BFF4F
:100590002046FFF725FE9DF80E103046FFF756FF68
:1005A00031462046FFF736FE2B460CAD224603CAE5
:1005B000AA4218605960144603F10803F6D10CB042
:1005C000BDE8F081C00C00002DE9F0412D4E8CB04B
:1005D0000B4605467168306801AC03C43089B17AB6
:1005E00008AE2080A170344603F1100C0DF1040810
:1005F000374618685968083303C763453E46F7D144
:1006000004AB1E4602F1100C1F46106851680832F8
:1006100003C762453B46F7D131462046FFF7FAFD56
:1006200001272046FFF7CFFE2046FFF7D9FDFFF751
:100630003BFE18F807103046FFF708FF0137314638
:100640002046FFF7E7FD0A2FEBD1FFF7BCFE20465F
:10065000FFF7C6FD9DF80E103046FFF7F7FE314656
:100660002046FFF7D7FD2B460CAD224603CAAA420F
:1006700018605960144603F10803F6D10CB0BDE8C8
:10068000F08100BFC00C00002DE9F04F34488FB05E
:1006900000F0E8F800285BD00AAA1746314B03F1B6
:1006A0001005144618685968083303C4AB42224643
:1006B000F7D1DFF8B480DFF8B490DFF8B4A040469B
:1006C000FFF715FD01216846FFF72AFD01280646C0
:1006D00043D19DF8005015B3012DF0D15046FFF7DE
:1006E00006FD102106A8FFF71BFD10280446E6D1E1
:1006F000002101A8FFF714FD06460028DFD1294696
:1007000000F078F801AB3A4606A902A8FFF7FDFE13
:100710003146304600F06EF8214602A815E04FF051
:10072000100B0EAC4846FFF7E2FC04F831BD314631
:100730002046FFF723FD314620468DF807B0FFF72E
:100740001DFD314620468DF80750FFF717FDB6E72F
:100750004FF0FF300FB0BDE8F08F0020FAE700BF88
:1007600000000010CB0C0000DB0C0000000D0000AE
:100770000A0D0000054B9B785843032390FBF3F0D0
:10078000002801DD0138FDD1704700BF30000010A6
:100790000146002208B58A4200DB08BD4FF47A709A
:1007A000FFF7E8FF0132F6E7024B00211B6898696A
:1007B000704700BF2800001001280CD003D3022886
:1007C00011D000207047094B1A6843F6FC73D058CB
:1007D00000F001007047054B1A6843F6FC73D058CF
:1007E000C0F340007047024BF6E700BF1000001056
:1007F0000C000010012811D002D3022817D0704736
:100800000E4B1A6843F6FC7321B1D15841F0010137
:10081000D1507047D15821F00101F9E7074B1A6810
:1008200043F6FC7329B1D15841F00201F0E7044BC3
:10083000F5E7D15821F00201EAE700BF10000010EF
:100840000C000010024B1B68586900F00100704753
:100850001C000010024B1B685869C0F34010704721
:100860001C0000102DE9F74F80460568A1481024B0
:100870000368A14ED3F880205FFA85FC42F48032F1
:10088000C3F880209D4A3560116801228A67CA67D3
:100890000C6140F20124C1F8A420C1F8A8200C6327
:1008A0004C63D3F88010944541F02001C3F88010C8
:1008B000D3F88010009041F04001C3F88010D3F8C5
:1008C000801041F48051C3F88010596821F0020172
:1008D0005960596841F00201596005D026D3BCF136
:1008E000020F05D00024E1E062464FF0030900E06A
:1008F00091464FF0000EC5F307210191C5F307455E
:100900000124019F0EF1010A0AFB07F1B1FBF4FB80
:1009100004FB1B1008B95D450AD00134B4F5807F93
:10092000F4D1BAF1200FD646EAD1DBE70022DCE7AA
:100930004D009C3DA42D0FD98D009C3DA42D40F26F
:10094000B980CD009C3DA42D40F2B68009019C39B0
:10095000A42900F2CD800320791E13294EEA40100D
:1009600000F2AC8000211962D3F83812BCF1000FFC
:1009700040F0AA8041F02001C3F83812C82300BF1C
:10098000013BFCD1009B1B681A645A6C42F00102C7
:100990005A645A6C22F001025A645A6C42F0010205
:1009A0005A645A6CD507FCD59860D3F8382222F0E7
:1009B0008002C3F83822DA68D107FCD5C3F87090FA
:1009C0005A6F42F001025A675A6F22F001025A67C9
:1009D0005A6F42F001025A675A6FD207FCD5B178BC
:1009E0009C67142973D80020454A12681061454A53
:1009F000126802F50040046844F0010404600468D1
:100A000044F0020404604048006800F500400468B7
:100A100024F00204046043F6FC70145824F001042E
:100A20001450145824F002041450384AC3F8981093
:100A30001368D96841F08001D96005219962996AEB
:100A400041F0800199620021596004211960D96840
:100A500021F08001D960D96841F00301D960D968DB
:100A600021F00801D960D96821F00401D960FFF7AD
:100A7000E9FE002837D1FFF7EDFE04460028FAD042
:100A8000234AB378126803EB830353611361402355
:100A900013606FF07F421F4B1B685A619A6198F890
:100AA00003201AB305221A6100F0D2F8204603B0E1
:100AB000BDE8F08F01204FE702204DE70F3F0A2FDE
:100AC0003FF652AF02214EE721F0200154E72829DA
:100AD00003D80B4A0120126888E7322987D8084AD0
:100AE0000220126882E713681B68C0E70422DAE775
:100AF0000446DBE70400001030000010080000107E
:100B000024000010100000100C0000101C00001049
:100B1000200000102800001008B510B9FFF792FE61
:100B2000FBE7024B1B681868C0B208BD1C00001030
:100B300008B510B9FFF78EFEFBE7024B1B68196082
:100B400008BD00BF1C0000102DE9F041202541EA3E
:100B5000400C4FF03C0E042738214FF02408182099
:100B6000354E346825603468656805F0F805282D31
:100B700039D014D8102D03D007D805B3082DF3D1E0
:100B8000C4F808C02760A061EDE7182D1ED0202D05
:100B9000EAD11423236028230220A36114E0402D0E
:100BA0002DD006D8302D24D0382DDDD1C4F80080CA
:100BB000E9E7502D2AD0582D35D0482DE8E71423E9
:100BC000236028230120A361BDE8F0812BB11578B3
:100BD0000132A5602760A161C5E7142222602822A6
:100BE000A2610020F0E7013BF1D114222260A5614F
:100BF000F7E71423236028230320A361E4E7012BF4
:100C00008ABF2760C4F818E0A161ACE7A468551C4E
:100C100014703268013B012B8ABF1760C2F818E0DC
:100C200091612A469FE70BB1A368137014223368C1
:100C30001A6028229A61D4E72000001013460A4661
:100C40000121FFF781BF13460A460021FFF77CBF51
:100C500062B6704772B6704740404940FFF714FDD6
:100C60007047000020F0030110F00300C0F1000005
:100C700051F8043B00F1040C4FEACC0C6FF0000279
:100C80001CBF22FA0CF213434FF0010C4CEA0C2C5F
:100C90004CEA0C4CA3EB0C0222EA030212EACC123F
:100CA00004BF51F8043B0430F4D0C2F1000102EA61
:100CB0000102B2FA82F2C2F11F0200EBD2007047C9
:100CC0000001020408102040801B36CD9716E95B16
:100CD00042DD4869772A346A7F5813496E7370651C
:100CE0006374202830313A303029206F7220454E0D
:100CF0004352595054202830313A3031293A20009B
:100D0000496E73706563743A2000456E6372797042
:040D1000743A200011
:0C0D1400000000000000000000000000D3
:100D2000000C0C0100800440004004400000005012
:100D300000000150000002500000035000800040FD
:0C0D40000000004000C0034000E000E0A4
:00000001FF
