:1000000000200010430000004100000041000000FB
:1000100041000000410000004100000041000000DC
:1000200041000000410000004100000041000000CC
:1000300041000000410000004100000041000000BC
:10004000FEE70B480B490C4A091A05D013780370D8
:10005000013201300139F9DC08480949091A04D094
:100060005B40037001300139FBDC00F0BDFDFEE7B1
:10007000000000102C010010B00C00003001001036
:1000800030010010E00D0000704710B5431E084419
:10009000A0EB5101884200D110BD13F8012F10F8D8
:1000A000014D1C700270F5E7402894BF3038373896
:1000B000C0B2704708B5FFF7F7FF03460846FFF7E1
:1000C000F3FF00EB0310C0B208BD092894BF303025
:1000D0003730C0B2704708B503460809FFF7F5FF8F
:1000E000187001F00F00FFF7F0FF587008BD70B5F1
:1000F000054600F07FFD2C460646631B9E4209DC48
:100100000D21002000F0DCFCBDE870400A21002039
:1001100000F0D6BC14F8011B002000F0D1FCECE785
:100120002DE9F041064600200F4600F0BDFC0446D4
:10013000002000F0B9FC01462046FFF7BBFF054652
:10014000002000F0B1FC3446A31BDBB29D424FF00F
:10015000000001D99F4204D800F0A6FC2846BDE863
:10016000F08100F0A1FC8046002000F09DFC0146DB
:100170004046FFF79FFF04F8010BE5E737B504465B
:1001800001A80D46FFF7A7FF9DF80410002000F01E
:1001900097FC9DF80510002000F092FC3A21002009
:1001A00000F08EFC013C2544AC4209D10D21002019
:1001B00000F086FC0A21002000F082FC03B030BD74
:1001C00014F8011F01A8FFF786FF9DF80410002016
:1001D00000F076FC9DF80510002000F071FCE3E7CC
:1001E0004179427A437B10B5447842714473827AF4
:1001F0008478417043728179837B84728173C4787F
:10020000C17982708371C27AC37BC471C172C273B7
:10021000C37010BD184B02789A5C027042789A5CE9
:10022000427082789A5C8270C2789A5CC27002795D
:100230009A5C027142799A5C427182799A5C82710D
:10024000C2799A5CC271027A9A5C0272427A9A5CB2
:100250004272827A9A5C8272C27A9A5CC272027B21
:100260009A5C0273427B9A5C4273827B9A5C8273D3
:10027000C27B9B5CC3737047000000100A78037850
:10028000534003704A784378534043708A788378A8
:1002900053408370CA78C3785340C3700A79037996
:1002A000534003714A794379534043718A79837982
:1002B00053408371CA79C3795340C3710A7A037A70
:1002C000534003724A7A437A534043728A7A837A5C
:1002D00053408372CA7AC37A5340C3720A7B037B4A
:1002E000534003734A7B437B534043738A7B837B36
:1002F00053408373CA7BC37B5340C3737047F0B5CD
:100300000378477B5940254B867BDA5DC57B51409E
:1003100001709C5D42785440447013F805C08278A7
:100320008CEA020290F80CC0827013F80CE0C378DB
:100330008EEA030390F804E0C37081EA0E0190F89E
:1003400005E0017184EA0E0490F806E0447182EA47
:100350000E0290F807E0827183EA0E0390F808E03D
:10036000C37181EA0E0190F809E0017284EA0E047B
:1003700090F80AE0447282EA0E0290F80BE0827272
:1003800083EA0E03C3728CEA01017C4072406B4029
:10039000017344738273C373F0BD00BF000000108B
:1003A00010F0800F4FEA400018BF80F01B00C0B271
:1003B00070472DE9F843031D00F1140813F8046C8D
:1003C00013F8035C304613F8024C13F8017CFFF776
:1003D000E7FF81462846FFF7E3FF02462046FFF786
:1003E000DFFF01463846FFF7DBFF89EA020C4A408F
:1003F000414089EA000085EA0C0C72407140464099
:1004000084EA0C0C62406940754087EA0C0C7A4023
:100410006C404F4003F804CC03F8032C03F8027C33
:1004200003F8014C04339845C8D1BDE8F8832DE9A1
:10043000F0412C4E8CB00B4605467168306801AC1B
:1004400003C43089B17A08AE2080A170344603F12C
:10045000100C0DF10408374618685968083303C7B3
:1004600063453E46F7D104AB1E4602F1100C1F4611
:1004700010685168083203C762453B46F7D13146E0
:100480002046FFF7FBFE01272046FFF7C3FEFFF7DC
:10049000A7FEFFF78EFF18F807103046FFF72FFF73
:1004A000013731462046FFF7E9FE0A2FECD1FFF76E
:1004B000B1FEFFF795FE9DF80E103046FFF71FFFC7
:1004C00031462046FFF7DAFE2B460CAD224603CA22
:1004D000AA4218605960144603F10803F6D10CB023
:1004E000BDE8F081500C00002DE9F0412C4E8CB09D
:1004F0000B4605467168306801AC03C43089B17A97
:1005000008AE2080A170344603F1100C0DF10408F0
:10051000374618685968083303C763453E46F7D124
:1005200004AB1E4602F1100C1F46106851680832D9
:1005300003C762453B46F7D131462046FFF79EFE92
:1005400001272046FFF766FEFFF74AFEFFF731FF5F
:1005500018F807103046FFF7D2FE01373146204623
:10056000FFF78CFE0A2FECD1FFF754FEFFF738FEA1
:100570009DF80E103046FFF7C2FE31462046FFF7C9
:100580007DFE2B460CAD224603CAAA421860596074
:10059000144603F10803F6D10CB0BDE8F08100BFAA
:1005A000500C000002460723002010B5FFF7F8FEAC
:1005B00041FA03F4E40744BF5040C0B213F1FF33E3
:1005C000F4D210BD70B50146FFF7ECFF0646FFF709
:1005D000E9FF314605463046FFF7E4FF0146044691
:1005E0002846FFF7DFFF05462046FFF7DBFF014601
:1005F0002846FFF7D7FF0146FFF7D4FF0146FFF774
:10060000D1FF01462846FFF7CDFFFFF7CBFFBDE83E
:1006100070400146FFF7C6BF2DE9F04F34488FB058
:1006200000F0E8F800285BD00AAA1746314B03F126
:100630001005144618685968083303C4AB422246B3
:10064000F7D1DFF8B480DFF8B490DFF8B4A040460B
:10065000FFF74DFD01216846FFF762FD01280646C0
:1006600043D19DF8005015B3012DF0D15046FFF74E
:100670003EFD102106A8FFF753FD10280446E6D1E1
:10068000002101A8FFF74CFD06460028DFD12946CE
:1006900000F078F801AB3A4606A902A8FFF7C7FEBA
:1006A0003146304600F06EF8214602A815E04FF0C2
:1006B000100B0EAC4846FFF71AFD04F831BD314669
:1006C0002046FFF75BFD314620468DF807B0FFF767
:1006D00055FD314620468DF80750FFF74FFDB6E730
:1006E0004FF0FF300FB0BDE8F08F0020FAE700BFF9
:1006F000000100105B0C00006B0C0000900C00006F
:100700009A0C0000054B9B785843032390FBF3F0B1
:10071000002801DD0138FDD1704700BF3001001015
:100720000146002208B58A4200DB08BD4FF47A700A
:10073000FFF7E8FF0132F6E7024B00211B689869DA
:10074000704700BF2801001001280CD003D30228F5
:1007500011D000207047094B1A6843F6FC73D0583B
:1007600000F001007047054B1A6843F6FC73D0583F
:10077000C0F340007047024BF6E700BF10010010C5
:100780000C010010012811D002D3022817D07047A5
:100790000E4B1A6843F6FC7321B1D15841F00101A8
:1007A000D1507047D15821F00101F9E7074B1A6881
:1007B00043F6FC7329B1D15841F00201F0E7044B34
:1007C000F5E7D15821F00201EAE700BF100100105F
:1007D0000C010010024B1B68586900F001007047C3
:1007E0001C010010024B1B685869C0F34010704791
:1007F0001C0100102DE9F74F80460568A148102420
:100800000368A14ED3F880205FFA85FC42F4803261
:10081000C3F880209D4A3560116801228A67CA6743
:100820000C6140F20124C1F8A420C1F8A8200C6397
:100830004C63D3F88010944541F02001C3F8801038
:10084000D3F88010009041F04001C3F88010D3F835
:10085000801041F48051C3F88010596821F00201E2
:100860005960596841F00201596005D026D3BCF1A6
:10087000020F05D00024E1E062464FF0030900E0DA
:1008800091464FF0000EC5F307210191C5F30745CE
:100890000124019F0EF1010A0AFB07F1B1FBF4FBF1
:1008A00004FB1B1008B95D450AD00134B4F5807F04
:1008B000F4D1BAF1200FD646EAD1DBE70022DCE71B
:1008C0004D009C3DA42D0FD98D009C3DA42D40F2E0
:1008D000B980CD009C3DA42D40F2B68009019C3921
:1008E000A42900F2CD800320791E13294EEA40107E
:1008F00000F2AC8000211962D3F83812BCF1000F6D
:1009000040F0AA8041F02001C3F83812C82300BF8C
:10091000013BFCD1009B1B681A645A6C42F0010237
:100920005A645A6C22F001025A645A6C42F0010275
:100930005A645A6CD507FCD59860D3F8382222F057
:100940008002C3F83822DA68D107FCD5C3F870906A
:100950005A6F42F001025A675A6F22F001025A6739
:100960005A6F42F001025A675A6FD207FCD5B1782C
:100970009C67142973D80020454A12681061454AC3
:10098000126802F50040046844F001040460046841
:1009900044F0020404604048006800F50040046828
:1009A00024F00204046043F6FC70145824F001049F
:1009B0001450145824F002041450384AC3F8981004
:1009C0001368D96841F08001D96005219962996A5C
:1009D00041F0800199620021596004211960D968B1
:1009E00021F08001D960D96841F00301D960D9684C
:1009F00021F00801D960D96821F00401D960FFF71E
:100A0000E9FE002837D1FFF7EDFE04460028FAD0B2
:100A1000234AB378126803EB8303536113614023C5
:100A200013606FF07F421F4B1B685A619A6198F800
:100A300003201AB305221A6100F0D2F8204603B051
:100A4000BDE8F08F01204FE702204DE70F3F0A2F4E
:100A50003FF652AF02214EE721F0200154E728294A
:100A600003D80B4A0120126888E7322987D8084A40
:100A70000220126882E713681B68C0E70422DAE7E5
:100A80000446DBE7040100103001001008010010EB
:100A900024010010100100100C0100101C010010B6
:100AA000200100102801001008B510B9FFF792FED0
:100AB000FBE7024B1B681868C0B208BD1C010010A0
:100AC00008B510B9FFF78EFEFBE7024B1B681960F3
:100AD00008BD00BF1C0100102DE9F041202541EAAE
:100AE000400C4FF03C0E042738214FF0240818200A
:100AF000354E346825603468656805F0F805282DA2
:100B000039D014D8102D03D007D805B3082DF3D150
:100B1000C4F808C02760A061EDE7182D1ED0202D75
:100B2000EAD11423236028230220A36114E0402D7E
:100B30002DD006D8302D24D0382DDDD1C4F800803A
:100B4000E9E7502D2AD0582D35D0482DE8E7142359
:100B5000236028230120A361BDE8F0812BB1157823
:100B60000132A5602760A161C5E714222260282216
:100B7000A2610020F0E7013BF1D114222260A561BF
:100B8000F7E71423236028230320A361E4E7012B64
:100B90008ABF2760C4F818E0A161ACE7A468551CBF
:100BA00014703268013B012B8ABF1760C2F818E04D
:100BB00091612A469FE70BB1A36813701422336832
:100BC0001A6028229A61D4E72001001013460A46D1
:100BD0000121FFF781BF13460A460021FFF77CBFC2
:100BE00062B6704772B6704740404940FFF714FD47
:100BF0007047000020F0030110F00300C0F1000076
:100C000051F8043B00F1040C4FEACC0C6FF00002E9
:100C10001CBF22FA0CF213434FF0010C4CEA0C2CCF
:100C20004CEA0C4CA3EB0C0222EA030212EACC12AF
:100C300004BF51F8043B0430F4D0C2F1000102EAD1
:100C40000102B2FA82F2C2F11F0200EBD200704739
:100C50000001020408102040801B36CD9716E95B86
:100C600042DD4869772A346A7F5813496E7370658C
:100C70006374202830313A303029206F7220454E7D
:100C80004352595054202830313A3031293A20000B
:100C9000496E73706563743A2000456E63727970B3
:040CA000743A200082
:0C0CA40000000000000000000000000044
:100CB000637C777BF26B6FC53001672BFED7AB7619
:100CC000CA82C97DFA5947F0ADD4A2AF9CA472C0C4
:100CD000B7FD9326363FF7CC34A5E5F171D8311531
:100CE00004C723C31896059A071280E2EB27B27552
:100CF00009832C1A1B6E5AA0523BD6B329E32F84CA
:100D000053D100ED20FCB15B6ACBBE394A4C58CFC1
:100D1000D0EFAAFB434D338545F9027F503C9FA895
:100D200051A3408F929D38F5BCB6DA2110FFF3D263
:100D3000CD0C13EC5F974417C4A77E3D645D197317
:100D400060814FDC222A908846EEB814DE5E0BDB11
:100D5000E0323A0A4906245CC2D3AC629195E47948
:100D6000E7C8376D8DD54EA96C56F4EA657AAE08A2
:100D7000BA78252E1CA6B4C6E8DD741F4BBD8B8A3D
:100D8000703EB5664803F60E613557B986C11D9EA3
:100D9000E1F8981169D98E949B1E87E9CE5528DF1A
:100DA0008CA1890DBFE6426841992D0FB054BB1646
:100DB000000C0C0100800440004004400000005082
:100DC000000001500000025000000350008000406D
:0C0DD0000000004000C0034000E000E014
:00000001FF
